:020000040800F2
:10000000502B00202D020008F9440008A70C00081E
:10001000A9440008590700088D5900080000000095
:10002000000000000000000000000000A74F0008D2
:100030005B070008000000001D4C00086950000824
:10004000470200084702000847020008470200086C
:1000500047020008470200085D070008AD070008D6
:10006000090800084108000879080008470200084C
:10007000470200084702000847020008470200083C
:10008000470200084702000847020008470200082C
:10009000470200084702000847020008F508000868
:1000A000470200084702000847020008470200080C
:1000B00047020008A5510008D9510008470200086E
:1000C00047020008470200084702000847020008EC
:1000D00047020008F15700084702000847020008DD
:1000E00047020008470200084702000847020008CC
:1000F00047020008470200084702000847020008BC
:10010000470200084702000895520008470200080D
:1001100047020008470200081D5300084702000874
:10012000470200084702000847020008470200088B
:1001300000F002F800F06BF80AA090E8000C82448E
:100140008344AAF10107DA4501D100F060F8AFF26B
:10015000090EBAE80F0013F0010F18BFFB1A43F0A5
:100160000103184764870000848700000A444FF0A9
:10017000000C10F8013B13F0070408BF10F8014B06
:100180001D1108BF10F8015B641E05D010F8016B4B
:10019000641E01F8016BF9D113F0080F1EBF10F8AF
:1001A000014BAD1C0C1B09D16D1E58BF01F801CBD2
:1001B000FAD505E014F8016B01F8016B6D1EF9D555
:1001C0009142D6D37047000000230024002500266A
:1001D000103A28BF78C1FBD8520728BF30C148BFAA
:1001E0000B607047642900F09D80752900F09A80AB
:1001F000782900F0D380632900F02782732900F06A
:100200002C82002070471FB51FBD10B510BD00F037
:1002100057FA1146FFF7F7FF05F03AFC00F075FAC0
:1002200003B4FFF7F2FF03BC05F0B8FB09488047B1
:1002300009480047FEE7FEE7FEE7FEE7FEE7FEE7C8
:10024000FEE7FEE7FEE7FEE704480549034A054BE3
:10025000704700006D500008310100085027002051
:10026000502B002050270020704700000FB4044995
:1002700010B503AA029800F0F5F910BC5DF814FB64
:100280005400002070B5044685690068C10601D598
:10029000302600E02026C00707D070BDD4E9012138
:1002A00030469047206A401C20626D1EF6D570BD16
:1002B00070B5044685690078C00707D170BDD4E9E0
:1002C000012120209047206A401C20626D1EF6D537
:1002D00070BD70B50C460546012A05D02878800609
:1002E00000D5EA69002302E0012305E05B1C93428C
:1002F00002D2E05C0028F9D1A869E618C01AA8610A
:10030000286A184428622846FFF7BCFF04E0D5E9B4
:10031000012114F8010B9047B442F8D32846FFF7A7
:10032000C7FF70BD2DE9F04106460024106875290D
:10033000314616A510D0AFF30080002802DA404203
:1003400013A507E031688A0701D512A502E0490725
:1003500004D511A5012401E0AFF3008000210A2299
:1003600006F1240709E0B0FBF2FCB0FBF2F302FB5C
:100370001C00303078541846491C0028F3D123461D
:100380002A463046BDE8F04100F0FCB8000000000D
:100390002D0000002B0000002000000070B5044676
:1003A0000D4621461068AFF300802188090502D56B
:1003B0000F4A7A4402E00E4A7A440E32002104F1D8
:1003C000240305E000F00F060009965D5E54491C09
:1003D0000028F7D120780023000704D5702D02D023
:1003E00009B1022311322046BDE8704000F0CAB8BE
:1003F000988300002DE9F05F894604464FF0000A1B
:10040000DFF874B1FB44C0F820A02046E1688847BB
:10041000002874D0252806D0D4E901219047206A0D
:10042000401C2062F1E700265F462046E1688847CD
:100430002028054607DB312D05D2781910F8200C4D
:1004400008B10643F1E7B00701D526F00406C4F869
:100450001CA00027C4F818A02A2D09D0284605F0B2
:1004600096FA38B304EB8708303DC8F8185019E005
:1004700059F8041B204604EB87029161E168884724
:10048000012F054618D1E069002820DA26F0200661
:100490001DE0D8F8180000EB800005EB4000303874
:1004A000C8F818002046E1688847054605F06FFA4D
:1004B0000028EED1012F0AD02E2D08D12046E16868
:1004C00088477F1C0546022F46F02006C4DBA06942
:1004D000002803DA404246F00106A061F00701D08F
:1004E00026F010066C2D0BD0682D09D04C2D39D07C
:1004F0006A2D35D0742D35D07A2D33D016E038E002
:10050000E1682F4620468847B842054609D16C2F3E
:1005100026D04FF48060E1680643204688470546B0
:1005200004E06C2F1AD04FF4807006430DB3A5F190
:100530004100192802D8203546F400664A4629466B
:10054000204626604E46FFF74DFE80B101280BD0B5
:10055000F61D26F0070000F1080956E74020E4E701
:100560008020D8E70020D6E706F104094DE72846A9
:1005700052E7206ABDE8F09F6E8300007047704725
:10058000704770472DE9F0470D469946924604465C
:1005900000F124080168880604D5E06921F0100103
:1005A000216000E00120A84201DD471B00E0002798
:1005B000A1697A1902EB0900081AA0612078C00627
:1005C00002D42046FFF75EFE002608E0D4E90121B0
:1005D0001AF806009047206A401C761C20624E459F
:1005E000F4DB2078C0060AD52046FFF74BFE06E074
:1005F000D4E9012130209047206A401C2062381E37
:10060000A7F10107F4DC07E0D4E9012118F805009F
:100610009047206A401C2062281EA5F10105F3DCEA
:100620002046FFF745FE2078000602D50220BDE8EF
:10063000F0870120FBE710B5436913B1AFF30080E9
:1006400001E0FFF746FE012010BD127800F1240101
:100650000A7000224A700122EDE711684FF0FF3264
:10066000E9E70000074B70B50D467B4400F011F838
:100670000446284600F020F810B14FF0FF3070BD5E
:10068000204670BD0B54000001694A1C02610878C5
:10069000704700B58FB0CDE90131002105910549C2
:1006A0007944CDE9031011466846FFF7A3FE0FB069
:1006B00000BD0000E5FFFFFF007B00F080007047F9
:1006C000754600F029F8AE4605006946534620F00D
:1006D0000700854618B020B5FFF7B6FDBDE82040FD
:1006E0004FF000064FF000074FF000084FF0000BEE
:1006F00021F00701AC46ACE8C009ACE8C009ACE8A1
:10070000C009ACE8C0098D4670470446AFF30080CD
:100710002046FFF785FD000000487047EC260020CA
:1007200038B50121082004F093FA4FF48074ADF835
:10073000004010208DF803000320064D8DF80200C4
:100740006946284600F02AFA2146284600F0A7FA12
:1007500038BD0000000C0140FEE7704710B50A20CC
:1007600005F03CF90E4C0121204600F091FA0128D9
:100770000ED10C490C4A4868401C4860D2F89401DC
:1007800058B10021C2F894110121204600F087FAE7
:10079000BDE81040012000F0D1B80121F2E70000CF
:1007A000001C01403C0000200080214208B50A20C6
:1007B00005F014F90221104800F06AFAA8B90F48B0
:1007C0000F498268521C8260D1F8940190B10020D8
:1007D000C1F8940118200090042378213C2003F0F4
:1007E000C3FD0221074800F05AFABDE80840022084
:1007F00000F0A4B80120EBE7001801403C00002005
:1008000000002342001C014010B50A2005F0E6F864
:100810000421094800F03CFA30B90849D1F89401A4
:1008200038B10020C1F89401BDE81040042000F068
:1008300085B80120F6E70000001801400080214241
:1008400010B50A2005F0CAF80821094800F020FA7E
:1008500030B90849D1F8940138B10020C1F89401A9
:10086000BDE81040082000F069B80120F6E700005C
:10087000001801400000234210B50A2005F0AEF830
:100880001021094800F004FA30B90849D1F8940160
:1008900038B10020C1F89401BDE81040102000F0EC
:1008A0004DB80120F6E70000001801400080214209
:1008B0003EB50821002000F05DF94FF4807000245F
:1008C00000908DF8044008208DF8050001258DF872
:1008D0000650684600F048F817208DF808008DF89B
:1008E00009408DF80A408DF80B5002A803F006FE6F
:1008F0003EBD000010B54FF48074204600F024F88F
:10090000012806D10A4B0B4A0021187830B1C2F8F1
:100910008C112046BDE8104000F010B80648C0F821
:1009200098110121C0F89811C2F88C111970F0E7E4
:100930003C000020008021420080224201490860E2
:100940007047000014040140064A01460020126866
:10095000044B0A4014331B680B4202D0002A00D01B
:10096000012070470004014030B51A4A83790168BC
:1009700053B313688B431360111D0B680468A343C2
:100980000B60017911440B68046823430B60114B21
:10099000083319680468A14319601C1D21680568A3
:1009A000A94321604179102905D011440A680068E3
:1009B00002430A6030BD196802681143196021685A
:1009C00000680143216030BD0079104402688A4309
:1009D000026030BD000401403EB500F039F801214D
:1009E000084604F035F90021052000F0C3F8002086
:1009F0008DF808000C2001248DF8090001948DF871
:100A00000A4001A8FFF7B0FF0121042000F0B2F86E
:100A1000022501A80195FFF7A7FF06208DF8000029
:100A20008DF8015003258DF802508DF8034068467B
:100A300003F064FD07208DF800008DF801408DF86B
:100A400002508DF80340684603F058FD3EBD00009B
:100A500008B50121C02004F0FBF80220ADF8000029
:100A600048208DF8030003208DF8020069460548F0
:100A700000F094F80120ADF800006946024800F04B
:100A80008DF808BD00180140001C01408000A0F155
:100A9000C0400029016802D041F0010101E0024A92
:100AA0001140016070470000FEFF0F0010B5D0E953
:100AB00001121143D0E903231A4311434269114340
:100AC00082691143C2691143026A1143426A1143A8
:100AD000826A1143C26A1143026B11430268920099
:100AE000A2F1C04211608168082907D1016889001C
:100AF000A1F1C0410A6842F040020A60416BD1E9AD
:100B0000002342EA03128B688C891B0243EA0443E8
:100B10001A430B8A42EA03520B7D896942EA036257
:100B20000A4301688900A1F1C0414A60C16AB1F578
:100B3000804F08D000686FF070418000A0F1C04085
:100B4000C0F8041110BD816BD1E9002342EA031201
:100B50008B680C8A1B0243EA04531A430B7D896994
:100B600042EA036200680A438000A0F1C040C0F876
:100B7000042110BD10B58A0721F003040649120FA5
:100B800021440F238C6893409C438C608B68904079
:100B900003438B6010BD000000000140F0B5CC782D
:100BA000002204F00F03E40601D58C7823430C786F
:100BB0004FF00F0C14F0FF0F4FF0010E1BD0056823
:100BC0000E880EFA02F42640A64210D196000CFAC6
:100BD00006F725EA070703FA06F5CE783D43282EE7
:100BE00002D0482E02D002E0446100E00461521CB1
:100BF000082AE5D305600A88FF2A1CD94468002228
:100C000002F108060EFA06F50E882E40AE420ED10D
:100C100096000CFA06F7BC4303FA06F7CE783C437D
:100C2000282E00D14561CE78482E00D10561521C96
:100C3000082AE5D34460F0BDF0B5144C002801DA71
:100C4000E36900E06368450D2E0185B2C0F30157EA
:100C5000B540C0F30342032F05D0C6020AD50326D0
:100C60009640B34307E023F07062636823F070633B
:100C7000636002E0AB4343F0706201B12A43002895
:100C800001DAE261F0BD6260F0BD000000000140E9
:100C90000246002092680A4200D00120704741615C
:100CA000704701617047FEE708B50121442003F059
:100CB000CFFF1C20ADF8000048208DF803006946E6
:100CC0000648FFF76BFF0120ADF8000028208DF8E3
:100CD000030069460248FFF761FF08BD00180140A4
:100CE000000801402DE9F043174F064600243888DC
:100CF0007D884543B888A0F5D041043902D1B87940
:100D0000012807D00021084603F066F903F092FBA2
:100D10000E4815E00020B8714FF02A09A7F80A9094
:100D20004FF02B08A7F80C80014603F055F901207D
:100D3000B871A7F80A80A7F80C90E7E70680641C52
:100D4000AC42FBD3BDE8F083162600200008006CFF
:100D50002DE9F04F4A492A232B24898845F2105A5D
:100D60004FF4305B4FF4285E4FF448754FF0F00CB1
:100D700049F241394FF4A07745F210364FF4F07242
:100D800080B13F484FF00108494580F80680078050
:100D9000A0F802C001D0B1423ED12C25058143818B
:100DA000848157E036484FF00008494580F80680B6
:100DB000A0F800C0478006D0A1F5D04CBCF1040CCF
:100DC00001D0B1420CD12C2505814381A1F5D0433E
:100DD0008481043B01D0B14244D10780428041E08C
:100DE000514507D1A0F808B0A0F80AE04FF42C5103
:100DF00081810EE0A1F5C856633E06D02221018113
:100E000020214181212181812CE02C2101814481FB
:100E100083810280458025E0A1F5D04CBCF1040C13
:100E200009D051450BD1A0F808B0A0F80AE04FF462
:100E30002C53838121E02C250581448109E0A1F513
:100E4000C85CBCF1630C12D02223038121234381AF
:100E500020238381A1F5D043043B01D0B14201D1CD
:100E600002804780BDE8F04F002002F0E1BF4FF064
:100E70002C0CA0F808C04381848105804280E9E7FA
:100E8000162600202DE9F04FDFF80C8193464246EC
:100E90000B46B8F804500C0ADFF800A19189060A45
:100EA0005289A5F513470AF10209413F18D0A5F56B
:100EB000A647103F14D0B7F500771CD04746A5F5DC
:100EC000C85CBE793F883F1A7F1EBCF1630C27D0F7
:100ED000A5F5D04CBCF1040C3AD0012E4AD04AE022
:100EE000AAF800204A46A9F80060C0B2A9F800009C
:100EF000AAF800103AE0AAF80020A9F80060521CF5
:100F0000AAF80020C0B2A9F80000AAF80010A9F8B9
:100F10000040491CAAF80010D8B2A9F8000033E03C
:100F200006B9B8B2AAF80020050A4A46A9F8005046
:100F3000C7B2A9F80070A9F80050C0B2A9F8000023
:100F4000AAF80010A9F80040D8B2A9F800000DE0F6
:100F5000012E00D1B8B2AAF80020050A4A46A9F825
:100F60000050C0B2A9F80000AAF800101480D8B24E
:100F7000108009E0B8B20146104603F065FAB8F8EF
:100F80000C00194603F060FAB8F80810AAF800102F
:100F9000A9F800B0BDE8F08F16260020FE07006C0F
:100FA0002DE9F04F01210E029FB0304603F038FECC
:100FB00001214FF4B47003F04BFE0127ADF83C70F3
:100FC0004FF010088DF83F8003248DF83E400FA9A4
:100FD000FE48FFF7E3FD4CF23370ADF83C001825F6
:100FE0008DF83F508DF83E400FA9F948FFF7D6FD28
:100FF0004FF68070ADF83C008DF83F508DF83E40C4
:101000000FA9F448FFF7CAFD41F20100ADF83C001A
:101010008DF83F508DF83E400FA9EF48FFF7BEFD19
:1010200000200F21CDE918011A901B901C901D90F3
:101030001090CDE91104CDE9160714900621159002
:10104000CDE90010CDE90208139004903101CDE9FB
:1010500008010690059007908900CDE90A010C90DF
:1010600017A80D9010A80E906846FFF71FFD0121EC
:101070000620FFF70BFD322004F0B0FC002002F048
:10108000ADFED64DD64C49F24139A88046F6040A49
:1010900045F2103B45F210574FF6FF78FF2804D376
:1010A000404502D0B0F5134F70D1D320208002F01C
:1010B0008BFEA88002F088FEA88002F085FE08EA78
:1010C00000204146A88002F07FFEAA881043A88035
:1010D00048455BD0BF20208002F076FEA88002F059
:1010E00073FEA88002F070FEA88002F06DFE01EA97
:1010F0000020A88002F068FEAA881043A88050450E
:1011000044D0D420208002F05FFEA88002F05CFE74
:10111000A88002F059FE01EA0020A88002F054FEE7
:10112000AA881043A880584530D04FF45A402080F8
:1011300002F04AFEA8804FF45B40208002F044FE9B
:1011400001EA0020A8804FF45C40208002F03CFEC1
:10115000AA881043A880B0F5004F7DD0B84215D0C2
:10116000A120208002F030FEA88002F02DFE01EACE
:101170000020A88002F028FEA9880843A0F5AE410F
:10118000A880613902D141F66310A880A98895A092
:10119000FFF76CF8A888924DAD1C48457ED1CF2052
:1011A000208000202880C120288030202880ED2049
:1011B000208064202880032028801220288081201D
:1011C0002880E820208085202880102028807A2010
:1011D0002880CB202080392028802C2028800020C7
:1011E00028803420288002202880F720208020209A
:1011F0002880EA202080002028802880C0202080AD
:101200001B202880C120208001202880C52020802C
:10121000302028802880C7202080B72028803620D2
:101220002080482028803A20208055202880B12026
:101230002080002028801A202880B62020800A20C4
:101240002880A2202880F2202080002028802620CC
:1012500020800120288000E051E0E02020800F2045
:1012600028802A20288028202880082028800E20F6
:1012700028800820288054202880A9202880432006
:1012800028800A2028800F2028800020288028809D
:1012900028802880E1202080002000E031E02880A4
:1012A00015202880172028800720288011202880DA
:1012B000062028802B202880562028803C2028804B
:1012C00005202880102028800F2028803F2028809B
:1012D00028800F2028802B20208000202880288034
:1012E000012028803F2028802A202080002028807C
:1012F00028802880EF2028801120208084E0AF8083
:1013000044E7504576D111202080142004F066FB7C
:10131000D020208007202880422028801D2028807F
:10132000D1202080002028801A20288009202880B1
:10133000D22020800120288022202880C0202080E8
:10134000102028803B202880002028800220288030
:1013500011202880C520208003202880C8202080DC
:101360000020288025202880212028800520288012
:10137000002028800A2028806520288025202880B9
:1013800077202880502028800F2028800020288067
:10139000F820208001202880FE2020800020288046
:1013A00002202880202020803620208008202880CD
:1013B0003A202080552028802B2020800020288063
:1013C0002880012028803F20288014E0000C014064
:1013D00000140140001801400020014016260020A2
:1013E000FE07006C204C43442049443A25780D0AFE
:1013F000000000000EE02A202080002028802880A5
:1014000001202880DF202880782004F0E7FA2920B6
:1014100001F02DBC58457DD1ED2020800120288091
:10142000FE202880EE202080DE20288021202880B9
:10143000F120208001202880DF20208010202880BB
:10144000C42020808F202880C62020800020288073
:10145000E220288028802880BF202080AA202880A1
:10146000B02020800D202880002028800D2028809A
:101470000020288011202880002028801920288022
:101480000020288021202880002028802D202880EE
:10149000002028803D202880002028805D20288092
:1014A000002028805D20288000202880B120208016
:1014B00080202880002028808B2028800020288001
:1014C0009620288000202880B220208000202880BC
:1014D00028800220288000202880032028800020E7
:1014E0002880B32020800020288028802880288021
:1014F00028802880288028802880288028802880AC
:10150000288028802880288028802880288028809B
:10151000288000E0FEE3288028802880B4202080F6
:101520008B2028800020288096202880002028807A
:10153000A120288000202880B5202080022028803B
:101540000020288003202880002028800420288074
:1015500000202880B6202080002028802880B72006
:1015600020800020288028803F202880002028809C
:101570005E20288000202880642028800020288089
:101580008C20288000202880AC2028800020288003
:10159000DC202880002028807020288000202880DF
:1015A0009020288000202880EB20288000202880A0
:1015B000DC20288000202880B8202080002028807F
:1015C0002880288028802880288028802880BA20A9
:1015D0002080242028800020288028802880C12086
:1015E000208020202880002028805420288000206F
:1015F0002880FF20288000202880C22020800A2008
:101600002880002028800420288000202880C320F3
:1016100020803C202880002028803A20288000203C
:10162000288039202880002028803720288000202A
:1016300028803C2028800020288036202880002018
:10164000288032202880002028802F202880002019
:1016500028802C2028800020288029202880002015
:101660002880262028800020288024202880002010
:101670002880242028800020288023202880002003
:1016800028803C20288000202880362028800020C8
:10169000288032202880002028802F2028800020C9
:1016A00028802C20288000202880292028800020C5
:1016B00028802620288000202880242028800020C0
:1016C00028802420288000202880232028800020B3
:1016D0002880C420208062202880002028800520C7
:1016E0002880002028808420288000202880F02066
:1016F0002880002028801820288000202880A4200E
:101700002880002028801820288000202880502051
:101710002880002028800C20288000202880172086
:101720002880002028809520288000202880F32011
:10173000288000202880E620288000202880C520DE
:10174000208032202880002028804420288000200B
:10175000288065202880002028807620288000208E
:1017600028808820288000202880C62020802020F3
:101770002880002028801720288000202880012031
:10178000288000202880C7202080002028802880F2
:1017900028802880C8202080002028802880288059
:1017A0002880C92020800020288028802880288048
:1017B00028802880288028802880288028802880E9
:1017C0002880288028802880E020208016202880FB
:1017D000002028801C2028800020288021202880AC
:1017E000002028803620288000202880462028805D
:1017F0000020288052202880002028806420288013
:10180000002028807A202880002028808B202880B3
:10181000002028809920288000202880A820288067
:1018200000202880B920288000202880C42028801B
:1018300000202880CA20288000202880D2202880EC
:1018400000202880D920288000202880E0202880BF
:1018500000202880F320288000202880E12020809C
:1018600016202880002028801C2028800020288026
:1018700022202880002028803620288000202880F0
:1018800045202880002028805220288000202880A1
:1018900064202880002028807A202880002028804A
:1018A0008B202880002028809920288000202880F4
:1018B000A820288000202880B920288000202880A7
:1018C000C420288000202880CA202880002028806A
:1018D000D220288000202880D8202880002028803E
:1018E000E020288000202880F32028800020288005
:1018F000E220208005202880002028800B202880DE
:10190000002028801B202880002028803420288068
:101910000020288044202880002028804F20288014
:1019200000202880612028800020288079202880BD
:101930000020288088202880002028809720288068
:1019400000202880A620288000202880B72028801A
:1019500000202880C220288000202880C7202880DE
:1019600000202880D120288000202880D6202880B0
:1019700000202880DD20288000202880F320288077
:1019800000202880E3202080052028800020288057
:101990000A202880002028801C2028800020288001
:1019A00033202880002028804420288000202880A0
:1019B0005020288000202880622028800020288055
:1019C00078202880002028808820288000202880F7
:1019D0009720288000202880A620288000202880AA
:1019E000B720288000202880C2202880002028805E
:1019F000C720288000202880D1202880002028802F
:101A0000D520288000202880DD2028800020288004
:101A1000F320288000202880E420208001202880D6
:101A20000020288001202880002028800220288093
:101A3000002028802A202880002028803C20288020
:101A4000002028804B202880002028805D202880CE
:101A5000002028807420288000202880842028806E
:101A6000002028809320288000202880A220288021
:101A700000202880B320288000202880BE202880D5
:101A800000202880C420288000202880CD202880A5
:101A900000202880D320288000202880DD20288076
:101AA00000202880F320288000202880E520208046
:101AB000002028802880288028800220288000207C
:101AC000288029202880002028803C202880002091
:101AD00028804B202880002028805D20288000203E
:101AE00028807420288000202880842028800020DE
:101AF00028809320288000202880A2202880002091
:101B00002880B320288000202880BE202880002044
:101B10002880C420288000202880CD202880002014
:101B20002880D320288000202880DC2028800020E6
:101B30002880F320288000202880E62020801120A3
:101B400028800020288034202880002028805620EB
:101B50002880002028807620288000202880772078
:101B60002880002028806620288000202880882067
:101B70002880002028809920288000202880BB20F1
:101B80002880002028809920288000202880662036
:101B9000288000202880552028800020288055207B
:101BA000288000202880452028800020288043208D
:101BB0002880002028804420288000202880E720DA
:101BC0002080322028800020288055202880002076
:101BD0002880762028800020288066202880002009
:101BE0002880672028800020288067202880002007
:101BF00028808720288000202880992028800020A5
:101C00002880BB2028800020288099202880002060
:101C100028807720288000202880442028800020E9
:101C2000288056202880002028802320288000201B
:101C3000288033202880002028804520288000200C
:101C40002880E82020800020288028809920288073
:101C50000020288087202880002028808820288055
:101C60000020288077202880002028806620288077
:101C7000002028808820288000202880AA20288012
:101C800000202880BB2028800020288099202880E0
:101C90000020288066202880002028805520288069
:101CA000002028805520288000202880442028807B
:101CB000002028804420288000202880552028806B
:101CC00000202880E9202080AA2028800020288069
:101CD000288028802080AA202880CF2020800020F3
:101CE00028802880288028802880288028802880B4
:101CF00028802880288028802880288028802880A4
:101D00002880F0202080002028805020288000207B
:101D1000288000E02CE028802880F320208000200C
:101D20002880F92020800620288010202880292063
:101D30002880002028803A202080552028801120EB
:101D40002080642003F04AFE292020803520208056
:101D50000020288051202080FF20288053202080D0
:101D60002C20288055202080822028802C20FCE3F5
:101D7000B8427DD14FF470435521184602F064FB00
:101D80004FF20105AA21284602F05EFB6E1C52218B
:101D9000304602F059FBAF1C0821384602F054FBD4
:101DA0004FF204090121484602F04EFB0D214FF489
:101DB000304002F049FB0D214BF2010002F044FBE0
:101DC0000D214BF2020002F03FFB4FF4364A342162
:101DD000504602F039FB34214BF2016002F034FB33
:101DE00034214BF2026002F02FFB4FF4314B0D21F6
:101DF000584602F029FB0D214BF2011002F024FBA2
:101E00000D214BF2021002F01FFB34214FF437403A
:101E100002F01AFB34214BF2017002F015FB342161
:101E20004BF2027002F010FB00214FF4324002F03E
:101E30000BFB00214BF2012002F006FB00214BF2CC
:101E4000022002F001FB24214FF4384002F0FCFA9A
:101E500024214BF6010002F0F7FA24214BF6020090
:101E600002F0F2FA01214FF43F4002F0EDFA00E0F7
:101E7000FEE30F214FF4334002F0E6FA0F214BF25C
:101E8000013002F0E1FA0F214BF2023002F0DCFAED
:101E900034214FF4394002F0D7FA34214BF60110C7
:101EA00002F0D2FA34214BF6021002F0CDFA0821EA
:101EB0004FF4354002F0C8FA08214BF2015002F00D
:101EC000C3FA08214BF2025002F0BEFA03214FF48C
:101ED000424002F0B9FA24214FF43A4002F0B4FA39
:101EE00024214BF6012002F0AFFA24214BF6022008
:101EF00002F0AAFA00214FF43C4002F0A5FA782142
:101F00004BF6014002F0A0FA00214BF6024002F02D
:101F10009BFA00214FF43D4002F096FA78214BF6EF
:101F2000015002F091FA00214BF6025002F08CFAB7
:101F300000214FF43E4002F087FA64214BF6016025
:101F400002F082FA00214FF4514002F07DFA332171
:101F50004DF2011002F078FA00214DF2021002F069
:101F600073FA34214DF2031002F06EFA00214DF2A3
:101F7000041002F069FA3A214DF2051002F064FAF9
:101F800000214DF2061002F05FFA4A214DF20710CF
:101F900002F05AFA00214DF2081002F055FA5C21C5
:101FA0004DF2091002F050FA00214DF20A1002F031
:101FB0004BFA81214DF20B1002F046FA00214DF24E
:101FC0000C1002F041FAA6214DF20D1002F03CFA7D
:101FD00000214DF20E1002F037FAE5214DF20F10FC
:101FE00002F032FA01214DF2101002F02DFA132105
:101FF0004DF2111002F028FA01214DF2121002F0F8
:1020000023FA54214DF2131002F01EFA01214DF271
:10201000141002F019FA82214DF2151002F014FA90
:1020200001214DF2161002F00FFACA214DF21710DD
:1020300002F00AFA02214DF2181002F005FA00210E
:102040004DF2191002F000FA02214DF21A1002F0BE
:10205000FBF901214DF21B1002F0F6F902214DF2BD
:102060001C1002F0F1F934214DF21D1002F0ECF9D0
:1020700002214DF21E1002F0E7F967214DF21F1008
:1020800002F0E2F902214DF2201002F0DDF9842184
:102090004DF2211002F0D8F902214DF2221002F087
:1020A000D3F9A4214DF2231002F0CEF902214DF212
:1020B000241002F0C9F9B7214DF2251002F0C4F93D
:1020C00002214DF2261002F0BFF9CF214DF2271068
:1020D00002F0BAF902214DF2281002F0B5F9DE2122
:1020E0004DF2291002F0B0F902214DF22A1002F04F
:1020F000ABF9F2214DF22B1002F0A6F902214DF2BC
:102100002C1002F0A1F9FE214DF22D1002F09CF9E5
:1021100003214DF22E1002F097F910214DF22F10ED
:1021200002F092F903214DF2301002F08DF93321C3
:102130004DF2311002F088F903214DF2321002F015
:1021400083F96D214DF2331002F07EF900214FF436
:10215000524002F079F933214DF2012002F074F976
:1021600000214DF2022002F06FF934214DF20320DC
:1021700002F06AF900214DF2042002F065F93A21DB
:102180004DF2052002F060F900214DF2062002F028
:102190005BF94A214DF2072002F056F900214DF279
:1021A000082002F051F95C214DF2092002F04CF9AF
:1021B00000214DF20A2002F047F981214DF20B2057
:1021C00002F042F900214DF20C2002F03DF9A62167
:1021D0004DF20D2002F038F900214DF20E2002F0F0
:1021E00033F9E5214DF20F2002F02EF901214DF2D5
:1021F000102002F029F913214DF2112002F024F9E8
:1022000001214DF2122002F01FF954214DF213204A
:1022100002F01AF901214DF2142002F015F9822181
:102220004DF2152002F010F901214DF2162002F0B6
:102230000BF9CA214DF2172002F006F902214DF2E6
:10224000182002F001F900214DF2192002F0FCF8EB
:1022500002214DF21A2002F0F7F801214DF21B2065
:1022600002F0F2F802214DF21C2002F0EDF83421C8
:102270004DF21D2002F0E8F802214DF21E2002F07E
:10228000E3F867214DF21F2002F0DEF802214DF243
:10229000202002F0D9F884214DF2212002F0D4F858
:1022A00002214DF2222002F0CFF8A4214DF223208A
:1022B00002F0CAF802214DF2242002F0C5F8B7213D
:1022C0004DF2252002F0C0F802214DF2262002F046
:1022D000BBF8CF214DF2272002F0B6F802214DF2D3
:1022E000282002F0B1F8DE214DF2292002F0ACF8EE
:1022F00002214DF22A2002F0A7F8F2214DF22B2004
:1023000002F0A2F802214DF22C2002F09DF8FE21ED
:102310004DF22D2002F098F803214DF22E2002F00C
:1023200093F810214DF22F2002F08EF803214DF288
:10233000302002F089F833214DF2312002F084F888
:1023400003214DF2322002F07FF86D214DF233204F
:1023500002F07AF800214FF4534002F075F833216F
:102360004DF2013002F070F800214DF2023002F01F
:102370006BF834214DF2033002F066F800214DF283
:10238000043002F061F83A214DF2053002F05CF8B9
:1023900000214DF2063002F057F84A214DF2073085
:1023A00002F052F800214DF2083002F04DF85C21A5
:1023B0004DF2093002F048F800214DF20A3002F0E7
:1023C00043F881214DF20B3002F03EF800214DF22E
:1023D0000C3002F039F8A6214DF20D3002F034F83D
:1023E00000214DF20E3002F02FF8E5214DF20F30B2
:1023F00002F02AF801214DF2103002F025F81321E5
:102400004DF2113002F020F801214DF2123002F0AD
:102410001BF854214DF2133002F016F801214DF251
:10242000143002F011F882214DF2153002F00CF850
:1024300001214DF2163002F007F8CA214DF2173093
:1024400002F002F802214DF2183001F0FDFF0021E8
:102450004DF2193001F0F8FF02214DF21A3001F06F
:10246000F3FF01214DF21B3001F0EEFF02214DF28E
:102470001C3001F0E9FF34214DF21D3001F0E4FF82
:1024800002214DF21E3001F0DFFF67214DF21F30B7
:1024900001F0DAFF02214DF2203001F0D5FF842156
:1024A0004DF2213001F0D0FF02214DF2223001F037
:1024B000CBFFA4214DF2233001F0C6FF02214DF2E3
:1024C000243001F0C1FFB7214DF2253001F0BCFFEF
:1024D00002214DF2263001F0B7FFCF214DF2273017
:1024E00001F0B2FF02214DF2283001F0ADFFDE21F4
:1024F0004DF2293001F0A8FF02214DF22A3001F0FF
:10250000A3FFF2214DF22B3001F09EFF02214DF28C
:102510002C3001F099FFFE214DF22D3001F094FF97
:1025200003214DF22E3001F08FFF10214DF22F309C
:1025300001F08AFF03214DF2303001F085FF332195
:102540004DF2313001F080FF03214DF2323001F0C5
:102550007BFF6D214DF2333001F076FF00214FF407
:10256000544001F071FF332100E080E34DF201405F
:1025700001F06AFF00214DF2024001F065FF3421B5
:102580004DF2034001F060FF00214DF2044001F0E4
:102590005BFF3A214DF2054001F056FF00214DF25C
:1025A000064001F051FF4A214DF2074001F04CFF77
:1025B00000214DF2084001F047FF5C214DF2094037
:1025C00001F042FF00214DF20A4001F03DFF812160
:1025D0004DF20B4001F038FF00214DF20C4001F0AC
:1025E00033FFA6214DF20D4001F02EFF00214DF2E8
:1025F0000E4001F029FFE5214DF20F4001F024FFCC
:1026000001214DF2104001F01FFF13214DF2114046
:1026100001F01AFF01214DF2124001F015FF542183
:102620004DF2134001F010FF01214DF2144001F072
:102630000BFF82214DF2154001F006FF01214DF202
:10264000164001F001FFCA214DF2174001F0FCFED7
:1026500002214DF2184001F0F7FE00214DF2194021
:1026600001F0F2FE02214DF21A4001F0EDFE00E011
:10267000FFE201214DF21B4001F0E6FE02214DF286
:102680001C4001F0E1FE34214DF21D4001F0DCFE62
:1026900002214DF21E4001F0D7FE67214DF21F408E
:1026A00001F0D2FE02214DF2204001F0CDFE842146
:1026B0004DF2214001F0C8FE02214DF2224001F00E
:1026C000C3FEA4214DF2234001F0BEFE02214DF2D3
:1026D000244001F0B9FEB7214DF2254001F0B4FECF
:1026E00002214DF2264001F0AFFECF214DF22740EE
:1026F00001F0AAFE02214DF2284001F0A5FEDE21E4
:102700004DF2294001F0A0FE02214DF22A4001F0D5
:102710009BFEF2214DF22B4001F096FE02214DF27C
:102720002C4001F091FEFE214DF22D4001F08CFE77
:1027300003214DF22E4001F087FE10214DF22F4073
:1027400001F082FE03214DF2304001F07DFE332185
:102750004DF2314001F078FE03214DF2324001F09C
:1027600073FE6D214DF2334001F06EFE00214FF4F7
:10277000554001F069FE33214DF2015001F064FE35
:1027800000214DF2025001F05FFE34214DF2035062
:1027900001F05AFE00214DF2045001F055FE3A219D
:1027A0004DF2055001F050FE00214DF2065001F0AF
:1027B0004BFE4A214DF2075001F046FE00214DF23A
:1027C000085001F041FE5C214DF2095001F03CFE41
:1027D00000214DF20A5001F037FE81214DF20B50DD
:1027E00001F032FE00214DF20C5001F02DFEA62129
:1027F0004DF20D5001F028FE00214DF20E5001F077
:1028000023FEE5214DF20F5001F01EFE01214DF295
:10281000105001F019FE13214DF2115001F014FE79
:1028200001214DF2125001F00FFE54214DF21350D0
:1028300001F00AFE01214DF2145001F005FE822143
:102840004DF2155001F000FE01214DF2165001F03D
:10285000FBFDCA214DF2175001F0F6FD02214DF2A9
:10286000185001F0F1FD00214DF2195001F0ECFD7E
:1028700002214DF21A5001F0E7FD01214DF21B50EB
:1028800001F0E2FD02214DF21C5001F0DDFD34218A
:102890004DF21D5001F0D8FD02214DF21E5001F005
:1028A000D3FD67214DF21F5001F0CEFD02214DF204
:1028B000205001F0C9FD84214DF2215001F0C4FDEA
:1028C00002214DF2225001F0BFFDA4214DF2235010
:1028D00001F0BAFD02214DF2245001F0B5FDB721FF
:1028E0004DF2255001F0B0FD02214DF2265001F0CD
:1028F000ABFDCF214DF2275001F0A6FD02214DF294
:10290000285001F0A1FDDE214DF2295001F09CFD7F
:1029100002214DF22A5001F097FDF2214DF22B5089
:1029200001F092FD02214DF22C5001F08DFDFE21AF
:102930004DF22D5001F088FD03214DF22E5001F093
:1029400083FD10214DF22F5001F07EFD03214DF249
:10295000305001F079FD33214DF2315001F074FD1A
:1029600003214DF2325001F06FFD6D214DF23350D5
:1029700001F06AFD00214FF4564001F065FD33215E
:102980004DF2016001F060FD00214DF2026001F0A6
:102990005BFD34214DF2036001F056FD00214DF244
:1029A000046001F051FD3A214DF2056001F04CFD4B
:1029B00000214DF2066001F047FD4A214DF207600B
:1029C00001F042FD00214DF2086001F03DFD5C2167
:1029D0004DF2096001F038FD00214DF20A6001F06E
:1029E00033FD81214DF20B6001F02EFD00214DF2EF
:1029F0000C6001F029FDA6214DF20D6001F024FDCF
:102A000000214DF20E6001F01FFDE5214DF20F6037
:102A100001F01AFD01214DF2106001F015FD1321A6
:102A20004DF2116001F010FD01214DF2126001F034
:102A30000BFD54214DF2136001F006FD01214DF212
:102A4000146001F001FD82214DF2156001F0FCFCE3
:102A500001214DF2166001F0F7FCCA214DF217601A
:102A600001F0F2FC02214DF2186001F0EDFC0021B2
:102A70004DF2196001F0E8FC02214DF21A6001F0FC
:102A8000E3FC01214DF21B6001F0DEFC02214DF25E
:102A90001C6001F0D9FC34214DF21D6001F0D4FC22
:102AA00002214DF21E6001F0CFFC67214DF21F6044
:102AB00001F0CAFC02214DF2206001F0C5FC842126
:102AC0004DF2216001F0C0FC02214DF2226001F0C4
:102AD000BBFCA4214DF2236001F0B6FC02214DF2B3
:102AE000246001F0B1FCB7214DF2256001F0ACFC8F
:102AF00002214DF2266001F0A7FCCF214DF22760A4
:102B000001F0A2FC02214DF2286001F09DFCDE21C3
:102B10004DF2296001F098FC02214DF22A6001F08B
:102B200093FCF2214DF22B6001F08EFC02214DF25C
:102B30002C6001F089FCFE214DF22D6001F084FC37
:102B400003214DF22E6001F07FFC10214DF22F6029
:102B500001F07AFC03214DF2306001F075FC332165
:102B60004DF2316001F070FC03214DF2326001F052
:102B70006BFC6D214DF2336001F066FC5521184667
:102B800001F062FCAA21284601F05EFC5221304689
:102B900001F05AFC0821384601F056FC0021484655
:102BA00001F052FCCC21584601F04EFC00214BF2C2
:102BB000011001F049FC0521504601F045FC70214F
:102BC0004FF4374001F040FC70214BF2017001F0EE
:102BD0003BFC01214FF4384001F036FC03214BF659
:102BE000010001F031FC03214BF6020001F02CFC46
:102BF00003214BF6030001F027FC02214FF43C4077
:102C000001F022FC00214BF6014001F01DFC0021E7
:102C10004BF6024001F018FCD0214FF4494001F07E
:102C200013FC02214CF6011001F00EFC50214CF671
:102C3000021001F009FC50214CF6031001F004FCD5
:102C400050214CF6041001F0FFFB00214FF45450CA
:102C500001F0FAFB55214FF4685001F0F5FB4FF4F9
:102C600088502080782002F0DFFE4FF4245020802E
:102C7000FEE3A0F513414FF4E06940F2022A4FF45D
:102C8000274B253924D040F20777C91E7ED04FF458
:102C9000887B08317BD011397AD0A0F5A84108395A
:102CA00077D0A0F5A8514FF4407B053972D0B1F52B
:102CB000204170D0B1F580516ED0A0F58A413139F4
:102CC0006BD0091F6AD0A0F5C851633967D0CFE730
:102CD00047F6F001E52001F0B7FB3146012001F095
:102CE000B3FB4946022001F0AFFB41F23001032063
:102CF00001F0AAFB0021042001F0A6FB51460820A8
:102D000001F0A2FB0021092001F09EFB00210A2016
:102D100001F09AFB00210C2001F096FB00210D2010
:102D200001F092FB00210F2001F08EFB002110200A
:102D300001F08AFB0721112001F086FB00211220FF
:102D400001F082FB0021132001F07EFB002107200F
:102D500001F07AFB41F29061102001F075FB40F226
:102D60002721112001F070FB9D21122001F06CFB46
:102D70004FF4C851132001F067FB2521292001F0F1
:102D800063FB0D212B2001F05FFB09E077E033E1CD
:102D9000D8E1AEE24AE3FDE3FDE3FDE3FDE3FDE35D
:102DA0000721302001F050FB40F20331312001F0C7
:102DB0004BFB0321322001F047FB40F20621352076
:102DC00001F042FB0821362001F03EFB40F20641B3
:102DD000372001F039FB4FF44171382001F034FB0A
:102DE0000721392001F030FB40F202613C2001F064
:102DF0002BFB08213D2001F027FB0021502001F092
:102E000023FBEF21512001F01FFB0021522001F094
:102E10001BFB40F23F11532001F016FB5946602086
:102E200001F012FB0121612001F00EFB00216A205C
:102E300001F00AFB0021802001F006FB0021812027
:102E400001F002FB0021822001F0FEFA0021832024
:102E500001F0FAFA0021842001F0F6FA0021852021
:102E600001F0F2FA1021902001F0EEFA4FF4C06167
:102E7000922001F0E9FA40F233110720FDE341F21C
:102E80008F01EC2001F0E0FA41F23421EF2001F053
:102E9000DBFA3146012001F0D7FA4946022001F061
:102EA000D3FA41F23001032001F0CEFA00210420D0
:102EB00001F0CAFA5146082001F0C6FA00210920A3
:102EC00001F0C2FA00210A2001F0BEFA01210C2013
:102ED00001F0BAFA00210D2001F0B6FA00210F200E
:102EE00001F0B2FA0021102001F0AEFA0721112002
:102EF00001F0AAFA0021122001F0A6FA0021132005
:102F000001F0A2FA0121072001F09EFA322002F01E
:102F100065FD41F29041102001F096FA40F2272120
:102F2000112001F091FA322002F058FD8A2112207E
:102F300001F08AFA322002F051FD4FF4D0511320F3
:102F400001F082FA0621292001F07EFA0D212B20C2
:102F500001F07AFA322002F041FD0021202001F038
:102F600073FA0021212001F06FFA322002F036FDC1
:102F70000021302001F068FA40F20461312001F0B4
:102F800063FA40F20531322001F05EFA002135206B
:102F900001F05AFA40F60941362001F055FA4FF493
:102FA0000171372001F050FA40F20131382001F070
:102FB0004BFA3946392001F047FA00213C2001F054
:102FC00043FA40F60A213D2001F03EFA322002F099
:102FD00005FD0021502001F037FAEF21512001F0CA
:102FE00033FA0021522001F02FFA40F23F11532012
:102FF00001F02AFA594651E10021084601F024FA6D
:103000003146012001F020FA4946022001F01CFA65
:1030100041F23001032001F017FA0021042001F0F1
:1030200013FA5146082001F00FFA0021092001F09F
:103030000BFA00210A2001F007FA01210C2001F00F
:1030400003FA00210D2001F0FFF900210F2001F00B
:10305000FBF9322002F0C2FC40F20111072001F01E
:10306000F3F9322002F0BAFC4FF48651102001F03F
:10307000EBF90721112001F0E7F95B4659461220D0
:1030800001F0E2F94FF43061132001F0DDF9002185
:10309000292001F0D9F944F210012B2001F0D4F9D4
:1030A0000021502001F0D0F9EF21512001F0CCF99E
:1030B0000021522001F0C8F940F23F11532001F0E5
:1030C000C3F94FF41C51602001F0BEF901216120C9
:1030D00001F0BAF900216A2001F0B6F90021802040
:1030E00001F0B2F90021812001F0AEF90021822027
:1030F00001F0AAF90021832001F0A6F90021842023
:1031000001F0A2F90021852001F09EF91021902004
:1031100001F09AF90021922001F096F90121932003
:1031200001F092F91946952001F08EF900219720BF
:1031300001F08AF90021982001F086F940F273111C
:10314000072085E341F21401E72001F07DF93146C3
:10315000012001F079F94FF40071022001F074F9B7
:1031600041F23801032001F06FF95146082001F0C7
:103170006BF90021092001F067F900210A2001F014
:1031800063F900210C2001F05FF900210D2001F00E
:103190005BF900210F2001F057F90021102001F008
:1031A00053F90721112001F04FF90021122001F0FD
:1031B0004BF90021132001F047F9C82002F00EFC62
:1031C00041F29061102001F03FF940F227211120D7
:1031D00001F03AF9322002F001FC0C21122001F03A
:1031E00033F9322002F0FAFB4FF40061132001F0B2
:1031F0002BF91121292001F027F90B212B2001F0B7
:1032000023F9322002F0EAFB0021202001F01CF912
:1032100040F23F131946212001F016F90021302019
:1032200001F012F94FF483742146312001F00CF9BA
:103230000021322001F008F94FF40171352001F02E
:1032400003F941F20A61362001F0FEF839463720D1
:1032500001F0FAF82146382001F0F6F83946392015
:1032600001F0F2F840F202413C2001F0EDF840F6A6
:103270000F413D2001F0E8F80021502001F0E4F872
:10328000EF21512001F0E0F80021522001F0DCF89C
:103290001946532001F0D8F84FF41C51602001F07A
:1032A000D3F80121612001F0CFF800216A2001F05C
:1032B000CBF80021802001F0C7F80021812001F027
:1032C000C3F80021822001F0BFF80021832001F023
:1032D000BBF80021842001F0B7F80021852001F01F
:1032E000B3F81021902001F0AFF84FF4C0619220A4
:1032F000FDE33146012001F0A7F84946022001F024
:10330000A3F841F23001032001F09EF800210420CF
:1033100001F09AF840F20721082001F095F8002109
:10332000092001F091F800210A2001F08DF8002118
:103330000C2001F089F800210D2001F085F8002112
:103340000F2001F081F8142002F048FB41F2B06137
:10335000102001F079F80121112001F075F8012108
:10336000172001F071F84FF49C71122001F06CF8F5
:103370004FF40061132001F067F80921292001F0C2
:1033800063F809212A2001F05FF80021A42001F050
:103390005BF80021502001F057F8EF21512001F097
:1033A00053F80021522001F04FF840F23F11532012
:1033B00001F04AF84FF41C51602001F045F801215A
:1033C000612001F041F800216A2001F03DF8002160
:1033D000802001F039F80021812001F035F800212A
:1033E000822001F031F80021832001F02DF8002126
:1033F000842001F029F80021852001F025F813210F
:10340000902001F021F80021922001F01DF8032105
:10341000932001F019F85946952001F015F840F273
:103420007311072001F010F8322010E1002107206D
:1034300001F00AF8322002F0D1FA4FF48E71122016
:1034400001F002F80121A42000F0FEFF0F21082066
:1034500000F0FAFF08210A2000F0F6FF08210D20F5
:1034600000F0F2FF3946302000F0EEFF072100E0C7
:103470006FE3312000F0E8FF40F20361322000F0FA
:10348000E3FF4C464946332000F0DEFF514634202E
:1034900000F0DAFF0221352000F0D6FF41F60F716F
:1034A000362000F0D1FF3946372000F0CDFF002153
:1034B000382000F0C9FF0021392000F0C5FF39464F
:1034C0003A2000F0C1FF00213B2000F0BDFF0721A2
:1034D0003C2000F0B9FF00213D2000F0B5FF322074
:1034E00002F07CFA0121072000F0AEFF0121172035
:1034F00000F0AAFF322002F071FA4FF4BD51102003
:1035000000F0A2FF40F21721112000F09DFF4FF4C0
:103510008F71122000F098FF4FF47061132000F0BB
:1035200093FF00212A2000F08FFF0A21292000F0BC
:103530008BFF4FF49F71122000F086FF0021502076
:1035400000F082FFEF21512000F07EFF0021522089
:1035500000F07AFF40F23F11532000F075FF4FF466
:103560001C51602000F070FF0121612000F06CFF11
:1035700000216A2000F068FF0021802000F064FF35
:103580000021812000F060FF0021822000F05CFF1C
:10359000002104E05EE05CE125E2DBE282E38320DF
:1035A00000F052FF0021842000F04EFF0021852012
:1035B00000F04AFF1321902000F046FF5946922068
:1035C00000F042FF0521932000F03EFF00219520EE
:1035D00000F03AFF0021972000F036FF00219820EC
:1035E00000F032FF3146012000F02EFF214602207C
:1035F00000F02AFF41F23801032000F025FF0021EE
:10360000042000F021FF00210C2000F01DFF00210C
:103610000F2000F019FF0021202000F015FF0021ED
:10362000212000F011FF2121072000F00DFF1420C0
:1036300002F0D4F96121072000F006FF142002F007
:10364000CDF940F27311072000F0FEFE142002F0C5
:10365000C5F9A1E30021084600F0F6FE0021084666
:1036600000F0F2FE0021084600F0EEFE00210846C0
:1036700000F0EAFE0121A42000E0E5E000F0E4FE15
:10368000142002F0ABF94FF41C542146602000F0E6
:10369000DBFE55465146082000F0D6FE4FF405717A
:1036A000302000F0D1FE43F21571312000F0CCFE45
:1036B00040F20461322000F0C7FE40F6166133206C
:1036C00000F0C2FE42F21121342000F0BDFE4FF4A2
:1036D000A851352000F0B8FE48F20751362000F01E
:1036E000B3FE41F20741372000F0AEFE41F2034144
:1036F000382000F0A9FE2021392000F0A5FE1A2173
:10370000902000F0A1FE0021102000F09DFE072176
:10371000112000F099FE0021122000F095FE0021FA
:10372000132000F091FE142002F058F94FF4E661E6
:10373000102000F089FE40F23711112000F084FEC5
:10374000142002F04BF94FF4DC71122000F07CFEE3
:10375000142002F043F94FF47061132000F074FE5E
:1037600080212A2000F070FE4821292000F06CFE04
:10377000142002F033F93146012000F065FE49467D
:10378000022000F061FE41F23801032000F05CFEEF
:103790002946082000F058FE00210A2000F054FEBF
:1037A00000210C2000F050FE00210D2000F04CFE06
:1037B00030210E2000F048FE0021502000F044FE91
:1037C000EF21512000F040FE0021522000F03CFE8D
:1037D00040F23F11532000F037FE2146602000F0F8
:1037E00033FE0121612000F02FFE00216A2000F04D
:1037F0002BFE1121902000F027FE4FF4C061922093
:1038000000F022FE40F20241932000F01DFE022152
:10381000942000F019FE142002F0E0F801210720A6
:1038200000F012FE142002F0D9F86121072000F008
:103830000BFE40F27311072000F006FE002120204D
:1038400000F002FE0021212000F0FEFD22210020D8
:103850007DE10021084600F0F7FD0021084600F058
:10386000F3FD142002F0BAF80021084600F0ECFD48
:103870000021084600F0E8FD0021084600F0E4FDC4
:103880000021084600F0E0FD0121A42000F0DCFD4D
:10389000142002F0A3F84FF41C51602000F0D4FD76
:1038A00040F60601082000F0CFFD40F203731946F0
:1038B000302000F0C9FD0121312000F0C5FD0421B8
:1038C000322000F0C1FD4FF48171332000F0BCFDC7
:1038D0005C465946342000F0B7FD40F20311352014
:1038E00000F0B2FD1F21362000F0AEFD1946372052
:1038F00000F0AAFD0121382000F0A6FD04213920A6
:1039000000F0A2FD1521902000F09EFD4FF4826191
:10391000102000F099FD40F24721112000F094FDA5
:103920004FF4DE71122000F08FFD4FF46061132020
:1039300000F08AFD782002F051F83146012000F0B5
:1039400083FD4FF40071022000F07EFD41F2300152
:10395000032000F079FD08210A2000F075FD002108
:103960000C2000F071FD20210E2000F06DFD0021E3
:103970000F2000F069FD0021202000F065FD0021EE
:10398000212000F061FD3D212A2000F05DFD142082
:1039900002F024F82D21292000F056FD00215020AE
:1039A00000F052FD4DF2EF01512000F04DFD0021DD
:1039B000522000F049FD40F23F11532000F044FD39
:1039C0000021612000F040FD00216A2000F03CFD54
:1039D0002146922000F038FD0521932000F034FDAF
:1039E0003146FFF7ADBB0121002000F02DFD0A207C
:1039F00001F0F4FF41F22861102000F025FD0E21B6
:103A0000122000F021FD40F63921132000F01CFDAA
:103A10000A2001F0E3FF4021112000F015FD5021A4
:103A2000152000F011FD0A2001F0D8FF1E21122000
:103A300000F00AFD0A2001F0D1FF4FF4B15110202F
:103A400000F002FD42F63921132000F0FDFC0A20AF
:103A500001F0C4FF3146012000F0F6FC5946022077
:103A600000F0F2FC41F23801032000F0EDFC514679
:103A7000082000F0E9FC08210A2000F0E5FC002104
:103A8000302000F0E1FC40F20241312000F0DCFC8B
:103A90004FF48371322000F0D7FC40F20351332001
:103AA00000F0D2FC4FF48271342000F0CDFC40F2E3
:103AB0000131352000F0C8FC3946362000F0C4FC46
:103AC00040F20531372000F0BFFC4FF4027138207E
:103AD00000F0BAFC40F60B71392000F0B5FC022171
:103AE000412000F0B1FC4FF41C51602000E0D4E014
:103AF00000F0AAFC0121612000F0A6FC4FF4047143
:103B0000902000F0A1FC4FF48571922000F09CFC05
:103B10000421932000F098FC3146A02000F094FC92
:103B20000121072000F090FC2121072000F08CFCEF
:103B30002321072000F088FC3321072000F084FCBB
:103B400040F23311072000F07FFC0021A02000F09C
:103B50007BFC21E13021152000F076FC10219A2019
:103B600000F072FC2021112000F06EFC43F228418D
:103B7000102000F069FC0221122000F065FC41F2E7
:103B80003801132000F060FC282001F027FF1221EB
:103B9000084600F059FC282001F020FF43F22041A4
:103BA000102000F051FC43F23801132000F04CFCCF
:103BB000462001F013FF0021302000F045FC40F2C8
:103BC0000241312000F040FC40F20731322000F089
:103BD0003BFC4FF44171332000F036FC04213420CB
:103BE00000F032FC40F20141352000F02DFC394656
:103BF000362000F029FC40F20531372000F024FC8B
:103C00004FF4C2631946382000F01EFC19463920D3
:103C100000F01AFC3146012000F016FC5946022043
:103C200000F012FC41F23001032000F00DFC40F6E0
:103C30000801082000F008FC08210A2000F004FC1C
:103C40004FF41C51602000F0FFFB0121612000F0C7
:103C5000FBFB4FF49F71902000F0F6FB3146922061
:103C600000F0F2FB3146932000F0EEFB4FF44051A0
:103C7000A02000F0E9FB1021A32000F0E5FB0121CA
:103C8000072000F0E1FB2121072000F0DDFB2321CC
:103C9000072000F0D9FB3321072000F0D5FB40F2CC
:103CA00033119EE6E22020801D20288002202880FB
:103CB00004202880642001F0B7FEE020208001204D
:103CC00028800A2001F08AFEE0202080032028803E
:103CD0000C2001F083FE012020800A2001F07EFEEE
:103CE000E62020802F202880FF2028802880B020F8
:103CF000208020202880002028800320288040F277
:103D00001F3028800120288040F2DF10288000200A
:103D10002880B42020800420288040F21F40288082
:103D2000002028802E2028800020288028802880BD
:103D30002880B6202080022028804FF4037028803D
:103D40000020288017202880152028800020288027
:103D50002880F02020800320288029202080D02067
:103D6000208000202880BE20208005202880FE2082
:103D70002880012028800020288028802880B820E2
:103D800020800320288001202880BA202080012064
:103D90002880642000F02EF80020FCF7D9FF0549A8
:103DA0000120C1F880014046FCF79CFF1FB0BDE830
:103DB000F08F0000008021420346012000E05843BC
:103DC000491EC9B2FBD27047034808B50088ADF858
:103DD0000000BDF8000008BD0008006C044910B5E3
:103DE0000880052001F020FEBDE81040FFF7ECBF81
:103DF000FE07006C0C4A10B5BE211180941C0521F1
:103E0000218002F072FF4FF06632084B02F080FF13
:103E100002F03EFF208001202080FF202080002033
:103E20002080208010BD0000FE07006C6666044004
:103E3000F0B5674E00233146B279898846F604070B
:103E400041F66314012A01D02AB11DE0B9421BD00A
:103E5000A14202D118E0A14216D1082814D2DFE80D
:103E600000F00406080A0C0E101206200CE00720D1
:103E70000AE0042008E0052006E0012004E000201C
:103E800002E0032000E00220A1F5134C45F21032BD
:103E900045F21055BCF1410C07D0B94205D0914212
:103EA00003D0A94201D0A14275D1082812D2DFE87F
:103EB00000F0110406080A0C0E1080230AE04023CB
:103EC00008E0C02306E0202304E0602302E0A023F2
:103ED00000E0E023A94202D14FF4585000E0362020
:103EE000914205D0A94203D0A14201D043F008037A
:103EF000B94201D143F00203194600F0A5FAB28895
:103F0000A2420AD098063088718802D5884202D32E
:103F100003E0884201D9318070802E48811CAA427A
:103F20007289028021D100230B80531C038000235F
:103F30000B80931C038033885B1E1C0A0C80D21CF0
:103F40000280DAB20A80B289028000230B80531CFF
:103F5000038000230B80931C038073885B1E1C0A64
:103F60000C80D21C0280D8B212E000220A800A80A3
:103F70003288521E130A0B80D2B20A80B2890280A4
:103F80000020088008807088401E020A0A80C0B2A3
:103F90000880F0BDFFE7082812D2DFE800F0040631
:103FA00008110A0C0E1030230AE0102308E0202329
:103FB00006E0382304E0282302E0182300E0082369
:103FC000BDE8F040032043F4805100F03DBA00000A
:103FD00016260020FE07006C2DE9F04F4E4F0B46D1
:103FE0003A46BD880C0ADFF834B191895289A5F5AB
:103FF00013464FEA102C0BF1020A413E1DD0A5F5E5
:10400000A646103E19D03E46BE4696F80690368823
:10401000A5F5D047A6EB0008A8F10108043F17D08A
:10402000A5F5C857633F28D0A5F5AA477646103FA7
:1040300051D0B9F1010F63D064E0ABF800205246D3
:10404000AAF800C0C0B2AAF80000ABF800100FE058
:10405000B9F1010F01D11FFA88F0ABF80020050A71
:104060005246AAF80050C0B2AAF80000ABF80010FF
:104070001480D8B21080BDE8F08FB9F1000F1BD0CA
:10408000ABF800205246AAF800C0C0B2AAF800005F
:10409000761E300AAAF80000F0B21080ABF80010CB
:1040A00011461480D8B21080BEF80200401E020AE9
:1040B0000A80C0B20880DEE71FFA88F0ABF8002063
:1040C00000265246AAF80060AAF80060060AAAF87C
:1040D0000060C0B2E1E7ABF80020AAF800C0521CB3
:1040E000ABF80020C0B2AAF80000ABF80010AAF8A4
:1040F0000040491CABF80010D8B2AAF80000BAE79B
:104100001FFA88F00146104600F09EF9B089BDE81C
:10411000F04F194600F098B916260020FE07006CF3
:104120002DE9FC4F044691464844401E86B2C8180B
:10413000401E83B2009004EB0900401EC0F3072E1E
:10414000DFF850C100980D46C0F3072B6046BCF85D
:1041500004204FEA112881894089A2F513474FEACC
:10416000142A413F10D0A2F5A647103F0CD0A2F56B
:10417000D047043F08D09CF8067041F6631C0197B5
:10418000012F13D1624511D1434F3880B81CA0F8DC
:1041900000A0E2B20280A0F800E0F2B20280398012
:1041A000A0F80080E9B2018059461CE0394F624511
:1041B0003F881DD1A7EB0902121B374C009B92B21E
:1041C0009BB22080160AA01C0680D6B206804A4404
:1041D000521E160A0680D2B202802180A0F800800A
:1041E000E9B20180190A0180D9B20180BDE8FC8FD3
:1041F000A2F5A04CBCF5A26C1FD0019801283FD0BD
:10420000B04621462E4650204FF0510A4FF0520939
:10421000532700F019F94146504600F015F9314690
:10422000484600F011F91946384600F00DF92946C4
:104230002046BDE8FC4FFFF7CFBE174A1080971C01
:10424000A7F800A000F1010CA2F800C0E4B23C8085
:10425000841C1480A7F800E0C01C1080F0B23880E5
:104260001180A7F80080481C1080E8B23880881CB4
:104270001080A7F800B0C91C1180D8B23880B5E70B
:10428000B81B401E86B2381B9846401E294683B292
:10429000B9E7000016260020FE07006C2DE9F84F54
:1042A00082461F460C468B46580700D0012000EB83
:1042B000D70079084843203AC0B202F0FF0900262F
:1042C000009041E00C2F10D0102F12D0182F3ED1AB
:1042D000204909EBC90001EB80004FF00008855D23
:1042E00028060AD51C4802880BE009EB49001B4947
:1042F000F1E71B4901EB0910EFE70A9828B91648C6
:10430000428821465046FCF7BDFD6806050E15485B
:10431000641CA4B24088A04219D9A4EB0B00B84297
:1043200009D10AF101001FFA80FA0E485C460188A3
:1043300051450CD906E008F1010000F0FF08B8F182
:10434000080FCDD3761CF6B200988642BAD3BDE8EA
:10435000F88F000070790008340000200C6F00080E
:1043600080730008162600202DE9FF4F81B000273A
:10437000DDF838B01D46924680463C46B9464FEAC5
:104380005B0627E0281B401EC1B20A20FFF714FD80
:10439000BAFBF0F00A21B0FBF1F201FB120027B9E1
:1043A000691E8C4201DA48B101273030C2B206FBE7
:1043B000048080B25B46CDF8009006E006FB0480E6
:1043C00080B25B462022CDF800900299FFF766FF8D
:1043D000641CE4B2AC42D5D305B0BDE8F08F2DE942
:1043E000F84F044600F0FF0810190D46DDE90A7683
:1043F0001FFA80FA58191FFA80F94FF0000B11E0EC
:10440000544502D3E819444685B24D450FD23B4688
:1044100029462046CDF800B0FFF740FF04EB5700D7
:1044200084B2761C3278A2F120005E28E8D9BDE87B
:10443000F88F000002480349008908807047000097
:1044400016260020FE07006C024A1080901C018096
:1044500070470000FE07006C38B50121482000F0CD
:10446000F7FB2024ADF8004010208DF80300032056
:104470000B4D8DF8020069462846FCF78FFB202182
:104480002846FCF70EFCADF80040064C6946204675
:10449000FCF784FB20212046FCF703FC38BD00001C
:1044A000000C014000180140FEE7000038B5012172
:1044B000042000F0CDFB7820ADF8000010208DF82E
:1044C000030003200B4C8DF8020069462046FCF7E0
:1044D00065FB08212046FCF7E2FB10212046FCF793
:1044E000DEFB20212046FCF7DAFB40212046FCF7CA
:1044F000D6FB38BD000801407047000030B50F23DF
:10450000C27801780125F2B1144A126801F1E02164
:1045100002F4E062C2F5E062120AC2F10404D34080
:104520004278A24084781C401443220181F8002480
:10453000007800F01F018D404009800000F1E0206C
:10454000C0F8005130BD01F01F00854048098000CF
:1045500000F1E020C0F8805130BD00000CED00E01B
:104560000249084302490860704700000000FA054C
:104570000CED00E02DE9F041054600EB420086B26B
:1045800001EB430084B20F46B4F5447F02D9A4F591
:104590004474A4B2032000F043FC06F00302294651
:1045A00000F0F00062F39F010143032000F0DCFC07
:1045B000C5F38701192000F0D7FCC6F387011A2044
:1045C00000F0D2FC322000F02BFCC7F3C70117200B
:1045D00000F0CAFCC4F3C701BDE8F041182000F0A8
:1045E000C3BC10B5001D092815D2DFE800F01F1D5F
:1045F00012100E0C0A070500482100E0382106249D
:1046000009E02821FBE71821F9E70821F7E708214D
:1046100000E018210E249B2000F0A6FC2146BDE8F6
:104620001040AB2000F0A0BC2821F3E73821F1E7CF
:1046300010B5011D08290BD804014034E1B2A720B0
:1046400000F092FCE1B2BDE81040A82000F08CBC64
:1046500010BD011D082906D8202101EB8000C1B240
:104660009C2000F081BC7047F8B50024012140F285
:104670003D1000F0EDFA4FF48075ADF8005048267B
:104680008DF803600320424F8DF8020069463846DA
:10469000FCF784FA29463846FCF703FB1820ADF8EE
:1046A00000003C4F10258DF8035069463846FCF752
:1046B00075FA18213846FCF7F4FAFF20ADF800002F
:1046C0008DF8036069463448FCF768FA4020ADF87D
:1046D0000000324E8DF8035069463046FCF75EFA12
:1046E00040213046FCF7DDFA4FF44046ADF800605B
:1046F0008DF803502A4D69462846FCF74FFA31469B
:104700002846FCF7CEFA01212648FCF795FA00F07E
:10471000F5FA8021122000F027FC08B10120F8BD35
:10472000322001F05BF91C2000F07AFB4FF6FF7598
:1047300005EA00261D2000F073FB40EA0601A1F502
:10474000FE40A23803D018A0FBF790FDE6E70A2050
:1047500000F066FB05EA00250B2000F061FB40EA53
:104760000501A1F5EE40213804D012A0FBF77EFD33
:104770000220F8BD124D05EB4400417815F81400F5
:1047800000F0F2FB641CA4B2412CF4D30020F8BD6D
:1047900000080140000C01400010014000140140DD
:1047A00000200140000230004D49443A25640D0AC2
:1047B000000000004849443A25640D0A000000004A
:1047C000CC86000810B5062847D2DFE800F00306C3
:1047D0001D27313CFF21132009E0FD21132000F0AB
:1047E000C3FB5A21012000F0BFFB5C2129E000F04F
:1047F000BBFB65210E2000F0B7FB00212D2000F04F
:10480000B3FB00212E2024E0FD21132000F0ACFB9F
:104810005821012000F0A8FB602112E0FD211320A7
:1048200000F0A2FB8421012000F09EFB4C2108E057
:10483000FD21132000F098FB9621012000F094FB4D
:1048400040210220D3E7FF21132000F08DFBE5215A
:104850000E20BDE8104000F087BB10BD10B5072842
:1048600040D2DFE800F0040609131D2731000621BD
:1048700003E04621A62031E02621A62000F074FBAB
:104880008021602000F070FB802126E01E21A62000
:1048900000F06AFB8021602000F066FBC0211CE074
:1048A0001E21A62000F060FB6021084600F05CFBA2
:1048B000602112E01E21A62000F056FBA0216020FE
:1048C00000F052FB402108E01E21A62000F04CFB26
:1048D0004021602000F048FBA0216120BDE810408D
:1048E00000F042BB10BD2DE9F0470C4605464AB327
:1048F000C5F5207000EBD070C0F34F07C4F5F07021
:1049000000EBD070C0F34F060621122000F02CFB04
:104910002321172000F028FBA021182000F024FB01
:104920000721192000F020FBF0211A2000F01CFBC9
:104930000021322000F018FBA021292000F014FBF8
:10494000F02128E0C5F5A07000EBD070C0F34F0750
:10495000C4F1F00000EBD070C0F34F0646211220E6
:1049600000F002FB3F21172000F0FEFA5021182032
:1049700000F0FAFA0321192000F0F6FA78211A2043
:1049800000F0F2FA0021322000F0EEFA5021292046
:1049900000F0EAFA78212C2000F0E6FA172000F067
:1049A0003FFA00EB9700C1B2172000F0DDFAC5F323
:1049B00087018A46182000F0D7FA192000F030FA53
:1049C00000EB5600C1B2192000F0CEFAC4F3470143
:1049D00089461A2000F0C8FA322000F021FA8046F9
:1049E000F007400E07F0030104F0010640EA011051
:1049F00040EA860105F00304214341EA0801322020
:104A000000F0B2FA5146292000F0AEFA49462C20B7
:104A100000F0AAFA2A2000F003FA44EA080444EA63
:104A20008601BDE8F0472A2000F09EBA2DE9F84F34
:104A30007048007800287DD00420FFF7F9F96E4C0B
:104A40004FF4A078F02320886188A0F5A070F03999
:104A500001EBD17100EBD070C1F34F01C0F34F00F7
:104A60004246FFF75DFBA088A0F5C851633910D11D
:104A700020886188A0F5A070F03901EBD17100EBBE
:104A8000D070C1F34F01C0F34F004346F022FFF74F
:104A900047FBFFF7CFFC59494FF0000EC1F8B8E1D2
:104AA000574E10243460371F3C6034600120C1F839
:104AB000B8013C60534DDFF850C1DFF850B171468A
:104AC0004FF6FF79C24600203460AA683C60D2B23B
:104AD00009EA02223460AB683C60DBB21343BA29B6
:104AE0000FD999280DD9EA290BD2BB2809D201EB9D
:104AF00041180BEB480202EB4002A2F58042A2F8FB
:104B0000963EACF80030401C5045DDD3491CF029DE
:104B1000D9D3DFF8FC903F4C0021D84609F61E4A55
:104B200001EB4112002009EB42070AEB420608EBB9
:104B3000420500E05BE035F81020D30AC2F34512CD
:104B400027F81030520826F81020D4F804C0401C72
:104B500063446360A3685B1CA360E3681A44E2607B
:104B60002269521C22612128E3D3491C2F29D7D363
:104B7000D4E90101B0FBF1F26261D4E90301B0FBB9
:104B8000F1F0C4F804E0C4F808E0C4F80CE0C4F89C
:104B900010E0A061182675460423A0216420009629
:104BA000FFF7E2FB00960423C8216420A269FFF707
:104BB000DBFB60691E2804D9E169884201D9012024
:104BC00007E0A169142906D90A2804D9814202D92B
:104BD0000220207000E0257006480F490570087813
:104BE000401C0870BDE8F84F0020FFF721B9BDE870
:104BF000F88F00003C000020162600200000244210
:104C0000140C0140001001400008006CF81900204D
:104C1000BC01002000000020490000207047000077
:104C2000044A0029516901D0014300E081435161E8
:104C30007047000000100240044A0029D16901D0E9
:104C4000014300E08143D161704700000010024041
:104C5000044A0029916901D0014300E08143916138
:104C6000704700000010024030B5204A5168204BC8
:104C700011F00C0103D0042901D0082901D00360F0
:104C800012E05168536801F470114FF0020413F4FC
:104C9000803F04EB914102D053689B0301D5154B33
:104CA00000E0134B5943016051680F2303EA1111CF
:104CB000114B5C5C0168E14041605468072505EADE
:104CC00014241C5D21FA04F48460546805EAD42499
:104CD0001B5DD940C1605268032303EA9232064B40
:104CE0001B1F9A5CB1FBF2F1016130BD0010024064
:104CF00000127A0000093D005C00002038B5012157
:104D00004FF49070FFF7A4FF4FF40055ADF800503A
:104D100048208DF803000320114C8DF802006946ED
:104D20002046FBF73BFF29462046FBF7BAFF082049
:104D3000ADF8000010200B4D8DF8030069462846A1
:104D4000FBF72CFF08212846FBF7ABFF606820F437
:104D500070006060606840F44010606038BD000022
:104D6000002001400014014070B5322000F05CFECC
:104D70000C4D0120C5F8B4010B4EC6F88C01322051
:104D800005F5DA7506F5C67600F04EFE00243460AF
:104D9000322000F049FE2C60BDE87040322000F067
:104DA00043BE000000002442008022422DE9F0476B
:104DB000184F0024786820F470007860786840F418
:104DC00000007860DFF85090144E08254FF001087D
:104DD000A246322000F028FEC6F88C816006040E40
:104DE000D9F8340108B1641CE4B2322000F01CFE92
:104DF000C6F88CA16D1E15F0FF05EAD1786820F485
:104E000070007860786840F4401078602046BDE813
:104E1000F087000000200140000024420080224270
:104E200010B5044600F022F8422000F055F8642046
:104E300000F0FAFD204600F04FF8642000F0F4FD89
:104E400000F02EF8642000F0EFFD00F00FF8432092
:104E500000F042F8642000F0E7FDFFF7A7FF0446EA
:104E6000FFF782FF00F01CF8204610BD70B50A4E17
:104E70000120C6F8B401094DC5F88C01322005F5B2
:104E8000C67506F5DA7600F0CFFD002434603220D6
:104E900000F0CAFD2C6070BD000024420080224258
:104EA00070B50B4C0020C4F8B401322004F5DA745C
:104EB00000F0BAFD07480125C0F88C51322000F0FF
:104EC000B3FD2560BDE87040322000F0ADBD0000AC
:104ED00000002442008022422DE9F04700241F4EAA
:104EE0001F4F0546A0464FF00109280601D5484648
:104EF00000E04046C6F8B4016806050E322000F016
:104F000093FDC7F88C91322000F08EFDC7F88C819C
:104F1000641CE4B2082CE8D3124C606820F47000E2
:104F20006060606840F400006060322000F07CFD4A
:104F3000C7F88C91322000F077FDD6F8340100B12B
:104F40000120C7F88C81616821F47001616061689B
:104F500041F440116160BDE8F08700000000244288
:104F6000008022420020014070B50D460646002414
:104F7000FFF77CFF4220FFF7AFFF00B10124642060
:104F800000F052FD3046FFF7A7FF00B10124642076
:104F900000F04AFD2846FFF79FFF00B10124FFF70C
:104FA0007FFF204670BD70470CB500222648009256
:104FB0000192016841F4803101604FF4A0630168FF
:104FC00001F4003101910099491C0091019911B936
:104FD00000999942F3D10168890333D501210191E8
:104FE0001A490A6842F010020A600A6822F00302B5
:104FF0000A600A6842F002020A6041684160416842
:105000004160416841F480614160416821F47C1154
:105010004160416841F4E8114160016841F08071EC
:10502000016001688901FCD5416821F003014160FC
:10503000416841F0020141604168C1F381010229E8
:10504000FAD10CBD01920CBD0010024000200240BC
:105050004FF0E0210428086903D020F00400086123
:10506000704740F00400FAE7704700000F4810B5A1
:10507000016841F00101016041680D4A1140416041
:1050800001680C4A11400160016821F4802101602F
:10509000416821F4FE0141604FF41F018160FFF778
:1050A00083FF05494FF00060086010BD001002400A
:1050B0000000FFF8FFFFF6FE08ED00E070B5048C7D
:1050C00024F001040484058B048C4FF6FF7606EA75
:1050D0000313134325F0F3050E4A2B4390420ED0E1
:1050E0000D4A90420BD0B0F1804F08D00B4A90424D
:1050F00005D00B4A904202D00A4A904202D124F0D5
:10510000020201E024F00A020A4342F00101038393
:10511000018470BD002C01400034014000040040B7
:1051200000080040000C0040F0B5048C24F010048E
:105130000484078B048C4FF6FF7527F4734705EA48
:1051400003333B4305EA02221A43114B05EA0116D9
:1051500098420ED00F4B98420BD0B0F1804F08D040
:105160000D4B984205D00D4B984202D00C4B984203
:1051700005D124F02001314341F0100104E024F076
:10518000A0030B4343F0100102830184F0BD000033
:10519000002C0140003401400004004000080040A1
:1051A000000C004010B50A4C0121204600F023F904
:1051B00000280AD00121204600F003F90549D1F862
:1051C000940118B10020C1F8940110BD0120FAE744
:1051D000000400400000234210B50C4C0121204681
:1051E00000F009F901280AD109480169884700211E
:1051F000204600F0B3F96421204600F0ADF92046C6
:10520000BDE81040012100F0DCB8000000080040BB
:10521000C8000020F0B50C46074687B001210820E1
:10522000FFF70AFD01210420FFF712FD0220ADF86F
:10523000180003258DF81A5004268DF81B6006A966
:105240001248FBF7ABFCADF81070ADF80C40002431
:105250000F4FADF81240ADF80E4003A9384600F0EC
:10526000A7F90120ADF80400ADF80060ADF80240E8
:10527000ADF80640ADF808506946384600F0C8F869
:105280000121384600F0A0F807B0F0BD0008014049
:10529000000C004070B51F4C1F4D2078000633D421
:1052A0000121284600F0A7F838B12178480604D536
:1052B000C843800612D0491C21700221284600F004
:1052C0009AF808B3217848060FD541F08000207085
:1052D000284600F083F86080002112E041F0800051
:1052E00020704FF6FF706080E7E70020207060803C
:1052F0000146284600F032F92078022140F04000B3
:105300002070284600F022F92846BDE870400321AD
:1053100000F057B848000020000C004070B5094D5F
:105320000121284600F067F830B1074C07A06178EA
:10533000FAF79CFF002060702846BDE8704001210C
:1053400000F03FB800100040480000206672616D18
:10535000653A25646670730D0A0000007FB50D463E
:10536000044601211020FFF767FCADF8044000203F
:10537000ADF80050104CADF80600ADF802006946DB
:10538000204600F015F901224121204600F0D6F810
:105390000121204600F018F836208DF80C0001207D
:1053A0008DF80D0003218DF80E108DF80F0003A865
:1053B000FFF7A4F87FBD000000100040C943018240
:1053C0007047C943018270470029018802D041F02B
:1053D000010101E021F0010101807047808E7047DA
:1053E000008F7047808C704702460020128A0A4264
:1053F00000D00120704702460020138A92890B4298
:1054000002EA010202D0002A00D001207047000009
:105410002DE9F84F0D4604460888434FDFF80CC1CC
:10542000DFF80C81DFF80C914988AA882B894FF0AE
:10543000804A48B3042830D04FF6FF7608289346B8
:1054400034D0208C9E4620F480502084A38B208C66
:1054500006EA0132009223F4734306EA0B221A4350
:1054600006EA0E331343BC420AD0644508D05445C3
:1054700006D0444504D04C4502D02F4A944245D131
:1054800020F40050009943E02046FFF717FEE9881A
:105490002046BDE8F84F00F063B82046FFF744FE11
:1054A000E9882046BDE8F84F00F062B8208C20F46F
:1054B00080702084B4F81CE0208C06EA031306EA0E
:1054C00001222EF0F30E43EA0B0343EA0E0300928F
:1054D000BC420AD0644508D0544506D0444504D0A7
:1054E0004C4502D0144A944203D120F40070009934
:1054F00001E020F42060084340F48070A3832084FE
:10550000E9882046BDE8F84F00F03EB820F402409C
:10551000084340F48050A3832084E9882046BDE8F6
:10552000F84F00F039B80000002C01400034014071
:105530000004004000080040000C0040002A82895E
:1055400001D00A4300E08A4382817047028C22F036
:1055500002020A4302847047818570478184704744
:10556000028B22F00C020283028B0A4302837047F3
:10557000028B22F440620283028B4FF6FF7303EA30
:1055800001210A4302837047828B22F00C0282833E
:10559000828B0A4382837047828B22F4406282832B
:1055A000828B4FF6FF7303EA01210A43828370471F
:1055B00030B502881B4C1C4DA0420DD0A8420BD028
:1055C000B0F1804F08D0194B984205D0184B984243
:1055D00002D0184B984203D122F070034A881A4334
:1055E000154B984206D0154B984203D022F44073D5
:1055F000CA881A4302808A8882850A880285A04266
:105600000AD0A84208D00E4A904205D00D4A9042D6
:1056100002D00D4A904201D1097A0186012181828E
:1056200030BD0000002C0140003401400004004067
:1056300000080040000C0040001000400014004032
:1056400000400140004401400048014070B500F0B6
:105650006FF84FF60B640B4D08E0FFF7C3FEA04256
:1056600004D92846BDE87040FFF7BCBE0421284697
:10567000FFF7BAFE00282846EFD0BDE87040FFF7DC
:10568000AFBE0000000C004030B5401E81B285B0B6
:105690004FF6FF70FFF7BEFD00246D46FFF7D6FF03
:1056A00025F814000A2000F099F9641CE4B20A2CD1
:1056B000F4D300214C1CE0B20BE035F8113035F882
:1056C0001020934203D925F8112025F81030401CF2
:1056D000C0B20A28F1D3E1B20929EBD3002102209C
:1056E00035F81020401C1144C0B289B20828F7D305
:1056F0000620B1FBF0F0074C6080618806A0FAF745
:10570000B5FD6088B0F5004F02D3012005B030BD73
:105710000020FBE738000020747061645F646566F8
:1057200061756C745F76616C3A25640D0A00000047
:1057300038B501210420FFF78BFA0220ADF80000F4
:1057400010208DF8030003200F4C8DF802006946ED
:105750002046FBF723FA02212046FBF7A0FA05209A
:1057600000F03CF9094D00212846FFF7F7FE05211E
:105770002846FFF726FE04218DF8031069462046CF
:10578000FBF70CFA38BD000000080140000C004097
:105790007FB50D46044601210420FFF74DFAADF810
:1057A00004400020ADF80050104CADF80600ADF8F4
:1057B000020069462046FFF7FBFE012241212046F8
:1057C000FFF7BCFE1E218DF80C1003218DF80D1083
:1057D0008DF80E1001208DF80F0003A8FEF78EFE45
:1057E00001212046FFF7F0FD7FBD000000080040CA
:1057F00070B5154C40F22551204600F035F80028D0
:105800000ED0204600F0BEF8104AC1B21088030442
:1058100006D444044FF0000306D50A2901D01380B2
:1058200070BD40F400400DE00D2909D0C0F30D0417
:10583000074D401C80B229551080C728EFD870BD95
:1058400040F48040108070BD0038014050000020BE
:10585000242600200029818902D041F4005101E072
:1058600021F400518181704770B501F01F050126B8
:105870000024C1F3421306FA05F2012B0FD0022BCC
:105880000FD0838A4FEA11210088134206FA01F6ED
:1058900000EA060001D000B10124204670BD8389D2
:1058A000F0E7038AEEE710B5C1F3421301F01F04DD
:1058B0000121A140012B07D0022B07D01430002A70
:1058C000026805D00A4304E00C30F8E71030F6E730
:1058D0008A43026010BD000030B50446008A85B0DE
:1058E0000D464CF6FF710840E98801432182A089EA
:1058F0004EF6F3110840A9882A8911436A890243A8
:105900001143A181A08A4FF6FF410840A9890143B4
:10591000A1826846FFF7A8F91948844201D103988B
:1059200000E00298A189090400EBC00101EB00101E
:10593000296801D5490000E08900B0FBF1F064223C
:10594000B0FBF2F109010B096FF018056B4300EB96
:105950008300A3891D044FF0320306D503EBC0007A
:10596000B0FBF2F000F0070005E003EB0010B0FB25
:10597000F2F000F00F000843208105B030BD0000B8
:10598000003801408088C0F308007047FEE73038D7
:105990000A2801D20120704700207047704700009C
:1059A00010B56FF00400FFF753FB09480949006880
:1059B000B0FBF1F00849C0B200EB40020870C2EB46
:1059C000C0104FF6FF7202EAC000488010BD000010
:1059D0002000002000127A004C0000200B4949886A
:1059E00048434FF0E021486100238B61086940F093
:1059F000010008610869C20701D0C003FAD508692F
:105A000020F0010008618B61704700004C0000200D
:105A100042F6E06303E01946491E89B2FCD2401EFB
:105A200080B2F8D2704700000B49097848434FF024
:105A3000E021486100238B61086940F001000861A2
:105A40000869C20701D0C003FAD5086920F0010037
:105A500008618B61704700004C000020054801215F
:105A6000C0F88C110022C0F89021C0F89411C0F841
:105A7000982170470000214204490A885206FCD54B
:105A8000024AC1B2121D1180704700000038014067
:105A90004FF000091CB5C8464F464E464D46FFF72D
:105AA0007FFF4FF4A060FEF75BFD4FF4E13000F0A4
:105AB0003FF96848416848208847FEF7CDFCFBF76E
:105AC000F3F8FBF76DFA0620FFF7DEFD62494FF4AD
:105AD00078400880FAF724FEFEF7E8FCFAF77CFF2E
